20160610-14:03:36.582 : 8=FIX.4.1|9=60|35=A|34=12|49=TRAD|52=20160610-14:03:36|56=EXCH|98=0|108=20|10=176|
20160610-14:03:36.582 : 8=FIX.4.1|9=60|35=A|34=10|49=EXCH|52=20160610-14:03:36|56=TRAD|98=0|108=20|10=174|
20160610-14:03:36.582 : 8=FIX.4.1|9=63|35=2|34=11|49=EXCH|52=20160610-14:03:36|56=TRAD|7=11|16=999999|10=093|
20160610-14:03:36.583 : 8=FIX.4.1|9=135|35=D|34=11|43=Y|49=TRAD|52=20160610-14:03:36|56=EXCH|122=20160610-13:58:19|11=1|21=1|40=1|54=1|55=BMLL|58=Hello Exchange! How are you?|10=140|
20160610-14:03:36.583 : 8=FIX.4.1|9=87|35=4|34=12|43=Y|49=TRAD|52=20160610-14:03:36|56=EXCH|122=20160610-14:03:36|36=13|123=Y|10=255|
20160610-14:04:08.366 : 8=FIX.4.1|9=60|35=A|34=13|49=TRAD|52=20160610-14:04:08|56=EXCH|98=0|108=20|10=177|
20160610-14:04:08.367 : 8=FIX.4.1|9=60|35=A|34=12|49=EXCH|52=20160610-14:04:08|56=TRAD|98=0|108=20|10=176|
20160610-14:04:08.367 : 8=FIX.4.1|9=63|35=2|34=13|49=EXCH|52=20160610-14:04:08|56=TRAD|7=11|16=999999|10=095|
20160610-14:04:08.367 : 8=FIX.4.1|9=135|35=D|34=11|43=Y|49=TRAD|52=20160610-14:04:08|56=EXCH|122=20160610-13:58:19|11=1|21=1|40=1|54=1|55=BMLL|58=Hello Exchange! How are you?|10=140|
20160610-14:04:08.367 : 8=FIX.4.1|9=87|35=4|34=12|43=Y|49=TRAD|52=20160610-14:04:08|56=EXCH|122=20160610-14:04:08|36=14|123=Y|10=000|
20160610-14:13:01.575 : 8=FIX.4.1|9=60|35=A|34=14|49=TRAD|52=20160610-14:13:01|56=EXCH|98=0|108=20|10=171|
20160610-14:13:01.575 : 8=FIX.4.1|9=60|35=A|34=14|49=EXCH|52=20160610-14:13:01|56=TRAD|98=0|108=20|10=171|
20160610-14:13:01.576 : 8=FIX.4.1|9=63|35=2|34=15|49=EXCH|52=20160610-14:13:01|56=TRAD|7=11|16=999999|10=090|
20160610-14:13:01.576 : 8=FIX.4.1|9=135|35=D|34=11|43=Y|49=TRAD|52=20160610-14:13:01|56=EXCH|122=20160610-13:58:19|11=1|21=1|40=1|54=1|55=BMLL|58=Hello Exchange! How are you?|10=133|
20160610-14:13:01.576 : 8=FIX.4.1|9=87|35=4|34=12|43=Y|49=TRAD|52=20160610-14:13:01|56=EXCH|122=20160610-14:13:01|36=15|123=Y|10=243|
20160610-14:13:32.817 : 8=FIX.4.1|9=60|35=A|34=15|49=TRAD|52=20160610-14:13:32|56=EXCH|98=0|108=20|10=176|
20160610-14:13:32.817 : 8=FIX.4.1|9=60|35=A|34=16|49=EXCH|52=20160610-14:13:32|56=TRAD|98=0|108=20|10=177|
20160610-14:13:32.817 : 8=FIX.4.1|9=63|35=2|34=17|49=EXCH|52=20160610-14:13:32|56=TRAD|7=11|16=999999|10=096|
20160610-14:13:32.817 : 8=FIX.4.1|9=135|35=D|34=11|43=Y|49=TRAD|52=20160610-14:13:32|56=EXCH|122=20160610-13:58:19|11=1|21=1|40=1|54=1|55=BMLL|58=Hello Exchange! How are you?|10=137|
20160610-14:13:32.818 : 8=FIX.4.1|9=87|35=4|34=12|43=Y|49=TRAD|52=20160610-14:13:32|56=EXCH|122=20160610-14:13:32|36=16|123=Y|10=252|
20160610-14:13:33.818 : 8=FIX.4.1|9=48|35=5|34=16|49=TRAD|52=20160610-14:13:33|56=EXCH|10=148|
20160610-14:13:33.818 : 8=FIX.4.1|9=48|35=5|34=18|49=EXCH|52=20160610-14:13:33|56=TRAD|10=150|
20160610-14:15:56.607 : 8=FIX.4.1|9=60|35=A|34=17|49=TRAD|52=20160610-14:15:56|56=EXCH|98=0|108=20|10=186|
20160610-14:15:56.608 : 8=FIX.4.1|9=60|35=A|34=19|49=EXCH|52=20160610-14:15:56|56=TRAD|98=0|108=20|10=188|
20160610-14:15:57.608 : 8=FIX.4.1|9=48|35=5|34=18|49=TRAD|52=20160610-14:15:57|56=EXCH|10=158|
20160610-14:15:57.608 : 8=FIX.4.1|9=48|35=5|34=20|49=EXCH|52=20160610-14:15:57|56=TRAD|10=151|
20160610-14:16:47.669 : 8=FIX.4.1|9=60|35=A|34=19|49=TRAD|52=20160610-14:16:47|56=EXCH|98=0|108=20|10=189|
20160610-14:16:47.670 : 8=FIX.4.1|9=60|35=A|34=21|49=EXCH|52=20160610-14:16:47|56=TRAD|98=0|108=20|10=182|
20160610-14:16:48.670 : 8=FIX.4.1|9=48|35=5|34=20|49=TRAD|52=20160610-14:16:48|56=EXCH|10=152|
20160610-14:16:48.671 : 8=FIX.4.1|9=48|35=5|34=22|49=EXCH|52=20160610-14:16:48|56=TRAD|10=154|
20160610-14:17:51.936 : 8=FIX.4.1|9=60|35=A|34=21|49=TRAD|52=20160610-14:17:51|56=EXCH|98=0|108=20|10=178|
20160610-14:17:51.936 : 8=FIX.4.1|9=60|35=A|34=23|49=EXCH|52=20160610-14:17:51|56=TRAD|98=0|108=20|10=180|
20160610-14:17:52.937 : 8=FIX.4.1|9=48|35=5|34=22|49=TRAD|52=20160610-14:17:52|56=EXCH|10=150|
20160610-14:17:52.937 : 8=FIX.4.1|9=48|35=5|34=24|49=EXCH|52=20160610-14:17:52|56=TRAD|10=152|
20160610-14:19:13.878 : 8=FIX.4.1|9=60|35=A|34=23|49=TRAD|52=20160610-14:19:13|56=EXCH|98=0|108=20|10=180|
20160610-14:19:13.878 : 8=FIX.4.1|9=60|35=A|34=25|49=EXCH|52=20160610-14:19:13|56=TRAD|98=0|108=20|10=182|
20160610-14:19:14.879 : 8=FIX.4.1|9=48|35=5|34=24|49=TRAD|52=20160610-14:19:14|56=EXCH|10=152|
20160610-14:19:14.879 : 8=FIX.4.1|9=48|35=5|34=26|49=EXCH|52=20160610-14:19:14|56=TRAD|10=154|
20160610-14:19:55.581 : 8=FIX.4.1|9=60|35=A|34=25|49=TRAD|52=20160610-14:19:55|56=EXCH|98=0|108=20|10=188|
20160610-14:19:55.581 : 8=FIX.4.1|9=60|35=A|34=27|49=EXCH|52=20160610-14:19:55|56=TRAD|98=0|108=20|10=190|
20160610-14:19:55.681 : 8=FIX.4.1|9=108|35=D|34=26|49=TRAD|52=20160610-14:19:55|56=EXCH|11=1|21=1|40=1|54=1|55=BMLL|58=Hello Exchange! How are you?|10=093|
20160610-14:19:56.582 : 8=FIX.4.1|9=48|35=5|34=27|49=TRAD|52=20160610-14:19:56|56=EXCH|10=161|
20160610-14:19:56.582 : 8=FIX.4.1|9=48|35=5|34=28|49=EXCH|52=20160610-14:19:56|56=TRAD|10=162|
20160610-16:00:16.970 : 8=FIX.4.1|9=60|35=A|34=28|49=TRAD|52=20160610-16:00:16|56=EXCH|98=0|108=20|10=180|
20160610-16:00:16.970 : 8=FIX.4.1|9=60|35=A|34=29|49=EXCH|52=20160610-16:00:16|56=TRAD|98=0|108=20|10=181|
20160610-16:00:17.070 : 8=FIX.4.1|9=108|35=D|34=29|49=TRAD|52=20160610-16:00:17|56=EXCH|11=1|21=1|40=1|54=1|55=BMLL|58=Hello Exchange! How are you?|10=086|
20160610-16:02:03.219 : 8=FIX.4.1|9=60|35=A|34=30|49=TRAD|52=20160610-16:02:03|56=EXCH|98=0|108=20|10=171|
20160610-16:02:03.219 : 8=FIX.4.1|9=60|35=A|34=30|49=EXCH|52=20160610-16:02:03|56=TRAD|98=0|108=20|10=171|
20160610-16:02:03.219 : 8=FIX.4.1|9=63|35=2|34=31|49=EXCH|52=20160610-16:02:03|56=TRAD|7=29|16=999999|10=099|
20160610-16:02:03.219 : 8=FIX.4.1|9=135|35=D|34=29|43=Y|49=TRAD|52=20160610-16:02:03|56=EXCH|122=20160610-16:00:17|11=1|21=1|40=1|54=1|55=BMLL|58=Hello Exchange! How are you?|10=132|
20160610-16:02:03.219 : 8=FIX.4.1|9=87|35=4|34=30|43=Y|49=TRAD|52=20160610-16:02:03|56=EXCH|122=20160610-16:02:03|36=31|123=Y|10=245|
20160610-16:03:02.127 : 8=FIX.4.1|9=60|35=A|34=32|49=TRAD|52=20160610-16:03:02|56=EXCH|98=0|108=20|10=173|
20160610-16:03:02.127 : 8=FIX.4.1|9=60|35=A|34=32|49=EXCH|52=20160610-16:03:02|56=TRAD|98=0|108=20|10=173|
20160610-16:03:02.127 : 8=FIX.4.1|9=63|35=2|34=33|49=EXCH|52=20160610-16:03:02|56=TRAD|7=29|16=999999|10=101|
20160610-16:03:02.127 : 8=FIX.4.1|9=135|35=D|34=29|43=Y|49=TRAD|52=20160610-16:03:02|56=EXCH|122=20160610-16:00:17|11=1|21=1|40=1|54=1|55=BMLL|58=Hello Exchange! How are you?|10=132|
20160610-16:03:02.127 : 8=FIX.4.1|9=87|35=4|34=30|43=Y|49=TRAD|52=20160610-16:03:02|56=EXCH|122=20160610-16:03:02|36=31|123=Y|10=245|
20160610-16:03:02.128 : 8=FIX.4.1|9=135|35=D|34=31|43=Y|49=TRAD|52=20160610-16:03:02|56=EXCH|122=20160610-16:02:03|11=1|21=1|40=1|54=1|55=BMLL|58=Hello Exchange! How are you?|10=122|
20160610-16:03:02.128 : 8=FIX.4.1|9=87|35=4|34=32|43=Y|49=TRAD|52=20160610-16:03:02|56=EXCH|122=20160610-16:03:02|36=33|123=Y|10=249|
20160610-16:03:42.099 : 8=FIX.4.1|9=60|35=A|34=34|49=TRAD|52=20160610-16:03:42|56=EXCH|98=0|108=20|10=179|
20160610-16:03:42.099 : 8=FIX.4.1|9=60|35=A|34=34|49=EXCH|52=20160610-16:03:42|56=TRAD|98=0|108=20|10=179|
20160610-16:03:42.099 : 8=FIX.4.1|9=63|35=2|34=35|49=EXCH|52=20160610-16:03:42|56=TRAD|7=29|16=999999|10=107|
20160610-16:03:42.099 : 8=FIX.4.1|9=135|35=D|34=29|43=Y|49=TRAD|52=20160610-16:03:42|56=EXCH|122=20160610-16:00:17|11=1|21=1|40=1|54=1|55=BMLL|58=Hello Exchange! How are you?|10=136|
20160610-16:03:42.100 : 8=FIX.4.1|9=87|35=4|34=30|43=Y|49=TRAD|52=20160610-16:03:42|56=EXCH|122=20160610-16:03:42|36=31|123=Y|10=253|
20160610-16:03:42.100 : 8=FIX.4.1|9=135|35=D|34=31|43=Y|49=TRAD|52=20160610-16:03:42|56=EXCH|122=20160610-16:02:03|11=1|21=1|40=1|54=1|55=BMLL|58=Hello Exchange! How are you?|10=126|
20160610-16:03:42.100 : 8=FIX.4.1|9=87|35=4|34=32|43=Y|49=TRAD|52=20160610-16:03:42|56=EXCH|122=20160610-16:03:42|36=33|123=Y|10=001|
20160610-16:03:42.100 : 8=FIX.4.1|9=135|35=D|34=33|43=Y|49=TRAD|52=20160610-16:03:42|56=EXCH|122=20160610-16:03:02|11=1|21=1|40=1|54=1|55=BMLL|58=Hello Exchange! How are you?|10=128|
20160610-16:03:42.100 : 8=FIX.4.1|9=87|35=4|34=34|43=Y|49=TRAD|52=20160610-16:03:42|56=EXCH|122=20160610-16:03:42|36=35|123=Y|10=005|
20160610-16:04:04.071 : 8=FIX.4.1|9=60|35=A|34=36|49=TRAD|52=20160610-16:04:04|56=EXCH|98=0|108=20|10=180|
20160610-16:04:04.071 : 8=FIX.4.1|9=60|35=A|34=36|49=EXCH|52=20160610-16:04:04|56=TRAD|98=0|108=20|10=180|
20160610-16:04:04.071 : 8=FIX.4.1|9=63|35=2|34=37|49=EXCH|52=20160610-16:04:04|56=TRAD|7=29|16=999999|10=108|
20160610-16:04:04.071 : 8=FIX.4.1|9=135|35=D|34=29|43=Y|49=TRAD|52=20160610-16:04:04|56=EXCH|122=20160610-16:00:17|11=1|21=1|40=1|54=1|55=BMLL|58=Hello Exchange! How are you?|10=135|
20160610-16:04:04.072 : 8=FIX.4.1|9=87|35=4|34=30|43=Y|49=TRAD|52=20160610-16:04:04|56=EXCH|122=20160610-16:04:04|36=31|123=Y|10=251|
20160610-16:04:04.072 : 8=FIX.4.1|9=135|35=D|34=31|43=Y|49=TRAD|52=20160610-16:04:04|56=EXCH|122=20160610-16:02:03|11=1|21=1|40=1|54=1|55=BMLL|58=Hello Exchange! How are you?|10=125|
20160610-16:04:04.072 : 8=FIX.4.1|9=87|35=4|34=32|43=Y|49=TRAD|52=20160610-16:04:04|56=EXCH|122=20160610-16:04:04|36=33|123=Y|10=255|
20160610-16:04:04.072 : 8=FIX.4.1|9=135|35=D|34=33|43=Y|49=TRAD|52=20160610-16:04:04|56=EXCH|122=20160610-16:03:02|11=1|21=1|40=1|54=1|55=BMLL|58=Hello Exchange! How are you?|10=127|
20160610-16:04:04.072 : 8=FIX.4.1|9=87|35=4|34=34|43=Y|49=TRAD|52=20160610-16:04:04|56=EXCH|122=20160610-16:04:04|36=35|123=Y|10=003|
20160610-16:04:04.072 : 8=FIX.4.1|9=135|35=D|34=35|43=Y|49=TRAD|52=20160610-16:04:04|56=EXCH|122=20160610-16:03:42|11=1|21=1|40=1|54=1|55=BMLL|58=Hello Exchange! How are you?|10=133|
20160610-16:04:04.072 : 8=FIX.4.1|9=87|35=4|34=36|43=Y|49=TRAD|52=20160610-16:04:04|56=EXCH|122=20160610-16:04:04|36=37|123=Y|10=007|
20160610-16:04:22.682 : 8=FIX.4.1|9=60|35=A|34=38|49=TRAD|52=20160610-16:04:22|56=EXCH|98=0|108=20|10=182|
20160610-16:04:22.683 : 8=FIX.4.1|9=60|35=A|34=38|49=EXCH|52=20160610-16:04:22|56=TRAD|98=0|108=20|10=182|
20160610-16:04:22.683 : 8=FIX.4.1|9=63|35=2|34=39|49=EXCH|52=20160610-16:04:22|56=TRAD|7=29|16=999999|10=110|
20160610-16:04:22.683 : 8=FIX.4.1|9=135|35=D|34=29|43=Y|49=TRAD|52=20160610-16:04:22|56=EXCH|122=20160610-16:00:17|11=1|21=1|40=1|54=1|55=BMLL|58=Hello Exchange! How are you?|10=135|
20160610-16:04:22.683 : 8=FIX.4.1|9=87|35=4|34=30|43=Y|49=TRAD|52=20160610-16:04:22|56=EXCH|122=20160610-16:04:22|36=31|123=Y|10=251|
20160610-16:04:22.683 : 8=FIX.4.1|9=135|35=D|34=31|43=Y|49=TRAD|52=20160610-16:04:22|56=EXCH|122=20160610-16:02:03|11=1|21=1|40=1|54=1|55=BMLL|58=Hello Exchange! How are you?|10=125|
20160610-16:04:22.683 : 8=FIX.4.1|9=87|35=4|34=32|43=Y|49=TRAD|52=20160610-16:04:22|56=EXCH|122=20160610-16:04:22|36=33|123=Y|10=255|
20160610-16:04:22.683 : 8=FIX.4.1|9=135|35=D|34=33|43=Y|49=TRAD|52=20160610-16:04:22|56=EXCH|122=20160610-16:03:02|11=1|21=1|40=1|54=1|55=BMLL|58=Hello Exchange! How are you?|10=127|
20160610-16:04:22.684 : 8=FIX.4.1|9=87|35=4|34=34|43=Y|49=TRAD|52=20160610-16:04:22|56=EXCH|122=20160610-16:04:22|36=35|123=Y|10=003|
20160610-16:04:22.684 : 8=FIX.4.1|9=135|35=D|34=35|43=Y|49=TRAD|52=20160610-16:04:22|56=EXCH|122=20160610-16:03:42|11=1|21=1|40=1|54=1|55=BMLL|58=Hello Exchange! How are you?|10=133|
20160610-16:04:22.684 : 8=FIX.4.1|9=87|35=4|34=36|43=Y|49=TRAD|52=20160610-16:04:22|56=EXCH|122=20160610-16:04:22|36=37|123=Y|10=007|
20160610-16:04:22.684 : 8=FIX.4.1|9=135|35=D|34=37|43=Y|49=TRAD|52=20160610-16:04:22|56=EXCH|122=20160610-16:04:04|11=1|21=1|40=1|54=1|55=BMLL|58=Hello Exchange! How are you?|10=134|
20160610-16:04:22.684 : 8=FIX.4.1|9=87|35=4|34=38|43=Y|49=TRAD|52=20160610-16:04:22|56=EXCH|122=20160610-16:04:22|36=39|123=Y|10=011|
20160610-16:04:47.416 : 8=FIX.4.1|9=60|35=A|34=40|49=TRAD|52=20160610-16:04:47|56=EXCH|98=0|108=20|10=182|
20160610-16:04:47.416 : 8=FIX.4.1|9=60|35=A|34=40|49=EXCH|52=20160610-16:04:47|56=TRAD|98=0|108=20|10=182|
20160610-16:04:47.416 : 8=FIX.4.1|9=63|35=2|34=41|49=EXCH|52=20160610-16:04:47|56=TRAD|7=29|16=999999|10=110|
20160610-16:04:47.417 : 8=FIX.4.1|9=135|35=D|34=29|43=Y|49=TRAD|52=20160610-16:04:47|56=EXCH|122=20160610-16:00:17|11=1|21=1|40=1|54=1|55=BMLL|58=Hello Exchange! How are you?|10=142|
20160610-16:04:47.417 : 8=FIX.4.1|9=87|35=4|34=30|43=Y|49=TRAD|52=20160610-16:04:47|56=EXCH|122=20160610-16:04:47|36=31|123=Y|10=009|
20160610-16:04:47.417 : 8=FIX.4.1|9=135|35=D|34=31|43=Y|49=TRAD|52=20160610-16:04:47|56=EXCH|122=20160610-16:02:03|11=1|21=1|40=1|54=1|55=BMLL|58=Hello Exchange! How are you?|10=132|
20160610-16:04:47.417 : 8=FIX.4.1|9=87|35=4|34=32|43=Y|49=TRAD|52=20160610-16:04:47|56=EXCH|122=20160610-16:04:47|36=33|123=Y|10=013|
20160610-16:04:47.417 : 8=FIX.4.1|9=135|35=D|34=33|43=Y|49=TRAD|52=20160610-16:04:47|56=EXCH|122=20160610-16:03:02|11=1|21=1|40=1|54=1|55=BMLL|58=Hello Exchange! How are you?|10=134|
20160610-16:04:47.417 : 8=FIX.4.1|9=87|35=4|34=34|43=Y|49=TRAD|52=20160610-16:04:47|56=EXCH|122=20160610-16:04:47|36=35|123=Y|10=017|
20160610-16:04:47.417 : 8=FIX.4.1|9=135|35=D|34=35|43=Y|49=TRAD|52=20160610-16:04:47|56=EXCH|122=20160610-16:03:42|11=1|21=1|40=1|54=1|55=BMLL|58=Hello Exchange! How are you?|10=140|
20160610-16:04:47.417 : 8=FIX.4.1|9=87|35=4|34=36|43=Y|49=TRAD|52=20160610-16:04:47|56=EXCH|122=20160610-16:04:47|36=37|123=Y|10=021|
20160610-16:04:47.417 : 8=FIX.4.1|9=135|35=D|34=37|43=Y|49=TRAD|52=20160610-16:04:47|56=EXCH|122=20160610-16:04:04|11=1|21=1|40=1|54=1|55=BMLL|58=Hello Exchange! How are you?|10=141|
20160610-16:04:47.417 : 8=FIX.4.1|9=87|35=4|34=38|43=Y|49=TRAD|52=20160610-16:04:47|56=EXCH|122=20160610-16:04:47|36=39|123=Y|10=025|
20160610-16:04:47.417 : 8=FIX.4.1|9=135|35=D|34=39|43=Y|49=TRAD|52=20160610-16:04:47|56=EXCH|122=20160610-16:04:22|11=1|21=1|40=1|54=1|55=BMLL|58=Hello Exchange! How are you?|10=143|
20160610-16:04:47.418 : 8=FIX.4.1|9=87|35=4|34=40|43=Y|49=TRAD|52=20160610-16:04:47|56=EXCH|122=20160610-16:04:47|36=41|123=Y|10=011|
20160610-16:04:47.516 : 8=FIX.4.1|9=108|35=D|34=41|49=TRAD|52=20160610-16:04:47|56=EXCH|11=1|21=1|40=1|54=1|55=BMLL|58=Hello Exchange! How are you?|10=087|
20160610-16:04:48.417 : 8=FIX.4.1|9=48|35=5|34=42|49=TRAD|52=20160610-16:04:48|56=EXCH|10=155|
20160610-16:04:48.418 : 8=FIX.4.1|9=48|35=5|34=42|49=EXCH|52=20160610-16:04:48|56=TRAD|10=155|
20160610-16:06:23.486 : 8=FIX.4.1|9=60|35=A|34=43|49=TRAD|52=20160610-16:06:23|56=EXCH|98=0|108=20|10=181|
20160610-16:06:23.486 : 8=FIX.4.1|9=60|35=A|34=43|49=EXCH|52=20160610-16:06:23|56=TRAD|98=0|108=20|10=181|
20160610-16:06:23.586 : 8=FIX.4.1|9=108|35=D|34=44|49=TRAD|52=20160610-16:06:23|56=EXCH|11=1|21=1|40=1|54=1|55=BMLL|58=Hello Exchange! How are you?|10=086|
20160610-16:06:49.725 : 8=FIX.4.1|9=60|35=A|34=45|49=TRAD|52=20160610-16:06:49|56=EXCH|98=0|108=20|10=191|
20160610-16:06:49.725 : 8=FIX.4.1|9=60|35=A|34=44|49=EXCH|52=20160610-16:06:49|56=TRAD|98=0|108=20|10=190|
20160610-16:06:49.725 : 8=FIX.4.1|9=63|35=2|34=45|49=EXCH|52=20160610-16:06:49|56=TRAD|7=44|16=999999|10=115|
20160610-16:06:49.725 : 8=FIX.4.1|9=135|35=D|34=44|43=Y|49=TRAD|52=20160610-16:06:49|56=EXCH|122=20160610-16:06:23|11=1|21=1|40=1|54=1|55=BMLL|58=Hello Exchange! How are you?|10=146|
20160610-16:06:49.725 : 8=FIX.4.1|9=87|35=4|34=45|43=Y|49=TRAD|52=20160610-16:06:49|56=EXCH|122=20160610-16:06:49|36=46|123=Y|10=029|
20160610-16:06:49.825 : 8=FIX.4.1|9=108|35=D|34=46|49=TRAD|52=20160610-16:06:49|56=EXCH|11=1|21=1|40=1|54=1|55=BMLL|58=Hello Exchange! How are you?|10=096|
20160610-16:06:50.726 : 8=FIX.4.1|9=48|35=5|34=47|49=TRAD|52=20160610-16:06:50|56=EXCH|10=155|
20160610-16:06:50.726 : 8=FIX.4.1|9=48|35=5|34=46|49=EXCH|52=20160610-16:06:50|56=TRAD|10=154|
20160610-16:14:32.771 : 8=FIX.4.1|9=60|35=A|34=48|49=TRAD|52=20160610-16:14:32|56=EXCH|98=0|108=20|10=185|
20160610-16:14:32.771 : 8=FIX.4.1|9=60|35=A|34=47|49=EXCH|52=20160610-16:14:32|56=TRAD|98=0|108=20|10=184|
20160610-16:14:32.871 : 8=FIX.4.1|9=108|35=D|34=49|49=TRAD|52=20160610-16:14:32|56=EXCH|11=1|21=1|40=1|54=1|55=BMLL|58=Hello Exchange! How are you?|10=090|
20160610-16:14:33.772 : 8=FIX.4.1|9=48|35=5|34=50|49=TRAD|52=20160610-16:14:33|56=EXCH|10=149|
20160610-16:14:33.772 : 8=FIX.4.1|9=48|35=5|34=48|49=EXCH|52=20160610-16:14:33|56=TRAD|10=156|
20160610-16:15:01.105 : 8=FIX.4.1|9=60|35=A|34=51|49=TRAD|52=20160610-16:15:01|56=EXCH|98=0|108=20|10=176|
20160610-16:15:01.105 : 8=FIX.4.1|9=60|35=A|34=49|49=EXCH|52=20160610-16:15:01|56=TRAD|98=0|108=20|10=183|
20160610-16:15:01.205 : 8=FIX.4.1|9=108|35=D|34=52|49=TRAD|52=20160610-16:15:01|56=EXCH|11=1|21=1|40=1|54=1|55=BMLL|58=Hello Exchange! How are you?|10=081|
20160610-16:15:02.106 : 8=FIX.4.1|9=48|35=5|34=53|49=TRAD|52=20160610-16:15:02|56=EXCH|10=149|
20160610-16:15:02.106 : 8=FIX.4.1|9=48|35=5|34=50|49=EXCH|52=20160610-16:15:02|56=TRAD|10=146|
20160610-16:15:34.854 : 8=FIX.4.1|9=60|35=A|34=54|49=TRAD|52=20160610-16:15:34|56=EXCH|98=0|108=20|10=185|
20160610-16:15:34.855 : 8=FIX.4.1|9=60|35=A|34=51|49=EXCH|52=20160610-16:15:34|56=TRAD|98=0|108=20|10=182|
20160610-16:15:34.955 : 8=FIX.4.1|9=108|35=D|34=55|49=TRAD|52=20160610-16:15:34|56=EXCH|11=1|21=1|40=1|54=1|55=BMLL|58=Hello Exchange! How are you?|10=090|
20160610-16:15:35.855 : 8=FIX.4.1|9=48|35=5|34=56|49=TRAD|52=20160610-16:15:35|56=EXCH|10=158|
20160610-16:15:35.856 : 8=FIX.4.1|9=48|35=5|34=52|49=EXCH|52=20160610-16:15:35|56=TRAD|10=154|
20160610-16:17:18.606 : 8=FIX.4.1|9=60|35=A|34=57|49=TRAD|52=20160610-16:17:18|56=EXCH|98=0|108=20|10=192|
20160610-16:17:18.607 : 8=FIX.4.1|9=60|35=A|34=53|49=EXCH|52=20160610-16:17:18|56=TRAD|98=0|108=20|10=188|
20160610-16:17:18.707 : 8=FIX.4.1|9=108|35=D|34=58|49=TRAD|52=20160610-16:17:18|56=EXCH|11=1|21=1|40=1|54=1|55=BMLL|58=Hello Exchange! How are you?|10=097|
20160610-16:17:19.607 : 8=FIX.4.1|9=48|35=5|34=59|49=TRAD|52=20160610-16:17:19|56=EXCH|10=165|
20160610-16:17:19.608 : 8=FIX.4.1|9=48|35=5|34=54|49=EXCH|52=20160610-16:17:19|56=TRAD|10=160|
20160610-16:19:00.662 : 8=FIX.4.1|9=60|35=A|34=60|49=TRAD|52=20160610-16:19:00|56=EXCH|98=0|108=20|10=179|
20160610-16:19:00.662 : 8=FIX.4.1|9=60|35=A|34=55|49=EXCH|52=20160610-16:19:00|56=TRAD|98=0|108=20|10=183|
20160610-16:19:00.762 : 8=FIX.4.1|9=108|35=D|34=61|49=TRAD|52=20160610-16:19:00|56=EXCH|11=1|21=1|40=1|54=1|55=BMLL|58=Hello Exchange! How are you?|10=084|
20160610-16:19:01.663 : 8=FIX.4.1|9=48|35=5|34=62|49=TRAD|52=20160610-16:19:01|56=EXCH|10=152|
20160610-16:19:01.663 : 8=FIX.4.1|9=48|35=5|34=56|49=EXCH|52=20160610-16:19:01|56=TRAD|10=155|
20160610-16:19:47.777 : 8=FIX.4.1|9=60|35=A|34=63|49=TRAD|52=20160610-16:19:47|56=EXCH|98=0|108=20|10=193|
20160610-16:19:47.777 : 8=FIX.4.1|9=60|35=A|34=57|49=EXCH|52=20160610-16:19:47|56=TRAD|98=0|108=20|10=196|
20160610-16:19:47.877 : 8=FIX.4.1|9=108|35=D|34=64|49=TRAD|52=20160610-16:19:47|56=EXCH|11=1|21=1|40=1|54=1|55=BMLL|58=Hello Exchange! How are you?|10=098|
20160610-16:19:48.777 : 8=FIX.4.1|9=48|35=5|34=65|49=TRAD|52=20160610-16:19:48|56=EXCH|10=166|
20160610-16:19:48.778 : 8=FIX.4.1|9=48|35=5|34=58|49=EXCH|52=20160610-16:19:48|56=TRAD|10=168|
