8=FIX.4.1|9=59|35=A|34=1|49=TRAD|52=20160610-13:52:41|56=EXCH|98=0|108=20|10=133|8=FIX.4.1|9=59|35=A|34=2|49=TRAD|52=20160610-13:52:41|56=EXCH|98=0|108=20|10=134|8=FIX.4.1|9=59|35=A|34=3|49=TRAD|52=20160610-13:55:04|56=EXCH|98=0|108=20|10=137|8=FIX.4.1|9=59|35=A|34=4|49=TRAD|52=20160610-13:55:49|56=EXCH|98=0|108=20|10=147|8=FIX.4.1|9=59|35=A|34=5|49=TRAD|52=20160610-13:56:59|56=EXCH|98=0|108=20|10=150|8=FIX.4.1|9=59|35=A|34=6|49=TRAD|52=20160610-13:57:09|56=EXCH|98=0|108=20|10=147|8=FIX.4.1|9=59|35=A|34=7|49=TRAD|52=20160610-13:57:24|56=EXCH|98=0|108=20|10=145|8=FIX.4.1|9=61|35=2|34=8|49=TRAD|52=20160610-13:57:24|56=EXCH|7=1|16=999999|10=005|8=FIX.4.1|9=59|35=A|34=9|49=TRAD|52=20160610-13:58:19|56=EXCH|98=0|108=20|10=152|8=FIX.4.1|9=62|35=2|34=10|49=TRAD|52=20160610-13:58:19|56=EXCH|7=1|16=999999|10=052|8=FIX.4.1|9=108|35=D|34=11|49=TRAD|52=20160610-13:58:19|56=EXCH|11=1|21=1|40=1|54=1|55=BMLL|58=Hello Exchange! How are you?|10=089|8=FIX.4.1|9=60|35=A|34=12|49=TRAD|52=20160610-14:03:36|56=EXCH|98=0|108=20|10=176|8=FIX.4.1|9=60|35=A|34=13|49=TRAD|52=20160610-14:04:08|56=EXCH|98=0|108=20|10=177|8=FIX.4.1|9=60|35=A|34=14|49=TRAD|52=20160610-14:13:01|56=EXCH|98=0|108=20|10=171|8=FIX.4.1|9=60|35=A|34=15|49=TRAD|52=20160610-14:13:32|56=EXCH|98=0|108=20|10=176|8=FIX.4.1|9=48|35=5|34=16|49=TRAD|52=20160610-14:13:33|56=EXCH|10=148|8=FIX.4.1|9=60|35=A|34=17|49=TRAD|52=20160610-14:15:56|56=EXCH|98=0|108=20|10=186|8=FIX.4.1|9=48|35=5|34=18|49=TRAD|52=20160610-14:15:57|56=EXCH|10=158|8=FIX.4.1|9=60|35=A|34=19|49=TRAD|52=20160610-14:16:47|56=EXCH|98=0|108=20|10=189|8=FIX.4.1|9=48|35=5|34=20|49=TRAD|52=20160610-14:16:48|56=EXCH|10=152|8=FIX.4.1|9=60|35=A|34=21|49=TRAD|52=20160610-14:17:51|56=EXCH|98=0|108=20|10=178|8=FIX.4.1|9=48|35=5|34=22|49=TRAD|52=20160610-14:17:52|56=EXCH|10=150|8=FIX.4.1|9=60|35=A|34=23|49=TRAD|52=20160610-14:19:13|56=EXCH|98=0|108=20|10=180|8=FIX.4.1|9=48|35=5|34=24|49=TRAD|52=20160610-14:19:14|56=EXCH|10=152|8=FIX.4.1|9=60|35=A|34=25|49=TRAD|52=20160610-14:19:55|56=EXCH|98=0|108=20|10=188|8=FIX.4.1|9=108|35=D|34=26|49=TRAD|52=20160610-14:19:55|56=EXCH|11=1|21=1|40=1|54=1|55=BMLL|58=Hello Exchange! How are you?|10=093|8=FIX.4.1|9=48|35=5|34=27|49=TRAD|52=20160610-14:19:56|56=EXCH|10=161|8=FIX.4.1|9=60|35=A|34=28|49=TRAD|52=20160610-16:00:16|56=EXCH|98=0|108=20|10=180|8=FIX.4.1|9=108|35=D|34=29|49=TRAD|52=20160610-16:00:17|56=EXCH|11=1|21=1|40=1|54=1|55=BMLL|58=Hello Exchange! How are you?|10=086|8=FIX.4.1|9=60|35=A|34=30|49=TRAD|52=20160610-16:02:03|56=EXCH|98=0|108=20|10=171|8=FIX.4.1|9=108|35=D|34=31|49=TRAD|52=20160610-16:02:03|56=EXCH|11=1|21=1|40=1|54=1|55=BMLL|58=Hello Exchange! How are you?|10=076|8=FIX.4.1|9=60|35=A|34=32|49=TRAD|52=20160610-16:03:02|56=EXCH|98=0|108=20|10=173|8=FIX.4.1|9=108|35=D|34=33|49=TRAD|52=20160610-16:03:02|56=EXCH|11=1|21=1|40=1|54=1|55=BMLL|58=Hello Exchange! How are you?|10=078|8=FIX.4.1|9=60|35=A|34=34|49=TRAD|52=20160610-16:03:42|56=EXCH|98=0|108=20|10=179|8=FIX.4.1|9=108|35=D|34=35|49=TRAD|52=20160610-16:03:42|56=EXCH|11=1|21=1|40=1|54=1|55=BMLL|58=Hello Exchange! How are you?|10=084|8=FIX.4.1|9=60|35=A|34=36|49=TRAD|52=20160610-16:04:04|56=EXCH|98=0|108=20|10=180|8=FIX.4.1|9=108|35=D|34=37|49=TRAD|52=20160610-16:04:04|56=EXCH|11=1|21=1|40=1|54=1|55=BMLL|58=Hello Exchange! How are you?|10=085|8=FIX.4.1|9=60|35=A|34=38|49=TRAD|52=20160610-16:04:22|56=EXCH|98=0|108=20|10=182|8=FIX.4.1|9=108|35=D|34=39|49=TRAD|52=20160610-16:04:22|56=EXCH|11=1|21=1|40=1|54=1|55=BMLL|58=Hello Exchange! How are you?|10=087|8=FIX.4.1|9=60|35=A|34=40|49=TRAD|52=20160610-16:04:47|56=EXCH|98=0|108=20|10=182|8=FIX.4.1|9=108|35=D|34=41|49=TRAD|52=20160610-16:04:47|56=EXCH|11=1|21=1|40=1|54=1|55=BMLL|58=Hello Exchange! How are you?|10=087|8=FIX.4.1|9=48|35=5|34=42|49=TRAD|52=20160610-16:04:48|56=EXCH|10=155|8=FIX.4.1|9=60|35=A|34=43|49=TRAD|52=20160610-16:06:23|56=EXCH|98=0|108=20|10=181|8=FIX.4.1|9=108|35=D|34=44|49=TRAD|52=20160610-16:06:23|56=EXCH|11=1|21=1|40=1|54=1|55=BMLL|58=Hello Exchange! How are you?|10=086|8=FIX.4.1|9=60|35=A|34=45|49=TRAD|52=20160610-16:06:49|56=EXCH|98=0|108=20|10=191|8=FIX.4.1|9=108|35=D|34=46|49=TRAD|52=20160610-16:06:49|56=EXCH|11=1|21=1|40=1|54=1|55=BMLL|58=Hello Exchange! How are you?|10=096|8=FIX.4.1|9=48|35=5|34=47|49=TRAD|52=20160610-16:06:50|56=EXCH|10=155|8=FIX.4.1|9=60|35=A|34=48|49=TRAD|52=20160610-16:14:32|56=EXCH|98=0|108=20|10=185|8=FIX.4.1|9=108|35=D|34=49|49=TRAD|52=20160610-16:14:32|56=EXCH|11=1|21=1|40=1|54=1|55=BMLL|58=Hello Exchange! How are you?|10=090|8=FIX.4.1|9=48|35=5|34=50|49=TRAD|52=20160610-16:14:33|56=EXCH|10=149|8=FIX.4.1|9=60|35=A|34=51|49=TRAD|52=20160610-16:15:01|56=EXCH|98=0|108=20|10=176|8=FIX.4.1|9=108|35=D|34=52|49=TRAD|52=20160610-16:15:01|56=EXCH|11=1|21=1|40=1|54=1|55=BMLL|58=Hello Exchange! How are you?|10=081|8=FIX.4.1|9=48|35=5|34=53|49=TRAD|52=20160610-16:15:02|56=EXCH|10=149|8=FIX.4.1|9=60|35=A|34=54|49=TRAD|52=20160610-16:15:34|56=EXCH|98=0|108=20|10=185|8=FIX.4.1|9=108|35=D|34=55|49=TRAD|52=20160610-16:15:34|56=EXCH|11=1|21=1|40=1|54=1|55=BMLL|58=Hello Exchange! How are you?|10=090|8=FIX.4.1|9=48|35=5|34=56|49=TRAD|52=20160610-16:15:35|56=EXCH|10=158|8=FIX.4.1|9=60|35=A|34=57|49=TRAD|52=20160610-16:17:18|56=EXCH|98=0|108=20|10=192|8=FIX.4.1|9=108|35=D|34=58|49=TRAD|52=20160610-16:17:18|56=EXCH|11=1|21=1|40=1|54=1|55=BMLL|58=Hello Exchange! How are you?|10=097|8=FIX.4.1|9=48|35=5|34=59|49=TRAD|52=20160610-16:17:19|56=EXCH|10=165|8=FIX.4.1|9=60|35=A|34=60|49=TRAD|52=20160610-16:19:00|56=EXCH|98=0|108=20|10=179|8=FIX.4.1|9=108|35=D|34=61|49=TRAD|52=20160610-16:19:00|56=EXCH|11=1|21=1|40=1|54=1|55=BMLL|58=Hello Exchange! How are you?|10=084|8=FIX.4.1|9=48|35=5|34=62|49=TRAD|52=20160610-16:19:01|56=EXCH|10=152|8=FIX.4.1|9=60|35=A|34=63|49=TRAD|52=20160610-16:19:47|56=EXCH|98=0|108=20|10=193|8=FIX.4.1|9=108|35=D|34=64|49=TRAD|52=20160610-16:19:47|56=EXCH|11=1|21=1|40=1|54=1|55=BMLL|58=Hello Exchange! How are you?|10=098|8=FIX.4.1|9=48|35=5|34=65|49=TRAD|52=20160610-16:19:48|56=EXCH|10=166|