8=FIX.4.1|9=59|35=A|34=1|49=EXCH|52=20160610-13:52:41|56=TRAD|98=0|108=20|10=133|8=FIX.4.1|9=59|35=A|34=2|49=EXCH|52=20160610-13:55:04|56=TRAD|98=0|108=20|10=136|8=FIX.4.1|9=61|35=2|34=3|49=EXCH|52=20160610-13:55:04|56=TRAD|7=2|16=999999|10=253|8=FIX.4.1|9=59|35=A|34=4|49=EXCH|52=20160610-13:55:49|56=TRAD|98=0|108=20|10=147|8=FIX.4.1|9=61|35=2|34=5|49=EXCH|52=20160610-13:55:49|56=TRAD|7=2|16=999999|10=008|8=FIX.4.1|9=59|35=A|34=6|49=EXCH|52=20160610-13:57:24|56=TRAD|98=0|108=20|10=144|8=FIX.4.1|9=61|35=2|34=7|49=EXCH|52=20160610-13:57:24|56=TRAD|7=2|16=999999|10=005|8=FIX.4.1|9=59|35=A|34=8|49=EXCH|52=20160610-13:58:19|56=TRAD|98=0|108=20|10=151|8=FIX.4.1|9=61|35=2|34=9|49=EXCH|52=20160610-13:58:19|56=TRAD|7=2|16=999999|10=012|8=FIX.4.1|9=60|35=A|34=10|49=EXCH|52=20160610-14:03:36|56=TRAD|98=0|108=20|10=174|8=FIX.4.1|9=63|35=2|34=11|49=EXCH|52=20160610-14:03:36|56=TRAD|7=11|16=999999|10=093|8=FIX.4.1|9=60|35=A|34=12|49=EXCH|52=20160610-14:04:08|56=TRAD|98=0|108=20|10=176|8=FIX.4.1|9=63|35=2|34=13|49=EXCH|52=20160610-14:04:08|56=TRAD|7=11|16=999999|10=095|8=FIX.4.1|9=60|35=A|34=14|49=EXCH|52=20160610-14:13:01|56=TRAD|98=0|108=20|10=171|8=FIX.4.1|9=63|35=2|34=15|49=EXCH|52=20160610-14:13:01|56=TRAD|7=11|16=999999|10=090|8=FIX.4.1|9=60|35=A|34=16|49=EXCH|52=20160610-14:13:32|56=TRAD|98=0|108=20|10=177|8=FIX.4.1|9=63|35=2|34=17|49=EXCH|52=20160610-14:13:32|56=TRAD|7=11|16=999999|10=096|8=FIX.4.1|9=48|35=5|34=18|49=EXCH|52=20160610-14:13:33|56=TRAD|10=150|8=FIX.4.1|9=60|35=A|34=19|49=EXCH|52=20160610-14:15:56|56=TRAD|98=0|108=20|10=188|8=FIX.4.1|9=48|35=5|34=20|49=EXCH|52=20160610-14:15:57|56=TRAD|10=151|8=FIX.4.1|9=60|35=A|34=21|49=EXCH|52=20160610-14:16:47|56=TRAD|98=0|108=20|10=182|8=FIX.4.1|9=48|35=5|34=22|49=EXCH|52=20160610-14:16:48|56=TRAD|10=154|8=FIX.4.1|9=60|35=A|34=23|49=EXCH|52=20160610-14:17:51|56=TRAD|98=0|108=20|10=180|8=FIX.4.1|9=48|35=5|34=24|49=EXCH|52=20160610-14:17:52|56=TRAD|10=152|8=FIX.4.1|9=60|35=A|34=25|49=EXCH|52=20160610-14:19:13|56=TRAD|98=0|108=20|10=182|8=FIX.4.1|9=48|35=5|34=26|49=EXCH|52=20160610-14:19:14|56=TRAD|10=154|8=FIX.4.1|9=60|35=A|34=27|49=EXCH|52=20160610-14:19:55|56=TRAD|98=0|108=20|10=190|8=FIX.4.1|9=48|35=5|34=28|49=EXCH|52=20160610-14:19:56|56=TRAD|10=162|8=FIX.4.1|9=60|35=A|34=29|49=EXCH|52=20160610-16:00:16|56=TRAD|98=0|108=20|10=181|8=FIX.4.1|9=60|35=A|34=30|49=EXCH|52=20160610-16:02:03|56=TRAD|98=0|108=20|10=171|8=FIX.4.1|9=63|35=2|34=31|49=EXCH|52=20160610-16:02:03|56=TRAD|7=29|16=999999|10=099|8=FIX.4.1|9=60|35=A|34=32|49=EXCH|52=20160610-16:03:02|56=TRAD|98=0|108=20|10=173|8=FIX.4.1|9=63|35=2|34=33|49=EXCH|52=20160610-16:03:02|56=TRAD|7=29|16=999999|10=101|8=FIX.4.1|9=60|35=A|34=34|49=EXCH|52=20160610-16:03:42|56=TRAD|98=0|108=20|10=179|8=FIX.4.1|9=63|35=2|34=35|49=EXCH|52=20160610-16:03:42|56=TRAD|7=29|16=999999|10=107|8=FIX.4.1|9=60|35=A|34=36|49=EXCH|52=20160610-16:04:04|56=TRAD|98=0|108=20|10=180|8=FIX.4.1|9=63|35=2|34=37|49=EXCH|52=20160610-16:04:04|56=TRAD|7=29|16=999999|10=108|8=FIX.4.1|9=60|35=A|34=38|49=EXCH|52=20160610-16:04:22|56=TRAD|98=0|108=20|10=182|8=FIX.4.1|9=63|35=2|34=39|49=EXCH|52=20160610-16:04:22|56=TRAD|7=29|16=999999|10=110|8=FIX.4.1|9=60|35=A|34=40|49=EXCH|52=20160610-16:04:47|56=TRAD|98=0|108=20|10=182|8=FIX.4.1|9=63|35=2|34=41|49=EXCH|52=20160610-16:04:47|56=TRAD|7=29|16=999999|10=110|8=FIX.4.1|9=48|35=5|34=42|49=EXCH|52=20160610-16:04:48|56=TRAD|10=155|8=FIX.4.1|9=60|35=A|34=43|49=EXCH|52=20160610-16:06:23|56=TRAD|98=0|108=20|10=181|8=FIX.4.1|9=60|35=A|34=44|49=EXCH|52=20160610-16:06:49|56=TRAD|98=0|108=20|10=190|8=FIX.4.1|9=63|35=2|34=45|49=EXCH|52=20160610-16:06:49|56=TRAD|7=44|16=999999|10=115|8=FIX.4.1|9=48|35=5|34=46|49=EXCH|52=20160610-16:06:50|56=TRAD|10=154|8=FIX.4.1|9=60|35=A|34=47|49=EXCH|52=20160610-16:14:32|56=TRAD|98=0|108=20|10=184|8=FIX.4.1|9=48|35=5|34=48|49=EXCH|52=20160610-16:14:33|56=TRAD|10=156|8=FIX.4.1|9=60|35=A|34=49|49=EXCH|52=20160610-16:15:01|56=TRAD|98=0|108=20|10=183|8=FIX.4.1|9=48|35=5|34=50|49=EXCH|52=20160610-16:15:02|56=TRAD|10=146|8=FIX.4.1|9=60|35=A|34=51|49=EXCH|52=20160610-16:15:34|56=TRAD|98=0|108=20|10=182|8=FIX.4.1|9=48|35=5|34=52|49=EXCH|52=20160610-16:15:35|56=TRAD|10=154|8=FIX.4.1|9=60|35=A|34=53|49=EXCH|52=20160610-16:17:18|56=TRAD|98=0|108=20|10=188|8=FIX.4.1|9=48|35=5|34=54|49=EXCH|52=20160610-16:17:19|56=TRAD|10=160|8=FIX.4.1|9=60|35=A|34=55|49=EXCH|52=20160610-16:19:00|56=TRAD|98=0|108=20|10=183|8=FIX.4.1|9=48|35=5|34=56|49=EXCH|52=20160610-16:19:01|56=TRAD|10=155|8=FIX.4.1|9=60|35=A|34=57|49=EXCH|52=20160610-16:19:47|56=TRAD|98=0|108=20|10=196|8=FIX.4.1|9=48|35=5|34=58|49=EXCH|52=20160610-16:19:48|56=TRAD|10=168|